S0110000424C455F4B4E585F4D532E68657859
S3151004000000600020358A05103188051033880510E4
S31510040010AA5555AA45554C420000000000000000A0
S3151004002000000000000000000000000035880510E4
S3151004003000000000000000003788051039880510FC
S3151004004041880510F71A0410000000000000000093
S3151004005043880510071C041045880510DB45041059
S315100400600000000000000000000000000000000076
S3151004007000000000A3470410BF4804100F490410E1
S31510040080000000004F1C0410672B0410B736041030
S31510040090BB3A04106F3C0410CB4F0410C74E041027
S315100400A00000000000000000000000000000000036
S315100400B00000000000000000000000000000000026
S315100400C0F0B585B003A904A800F0E4FF002853D1C5
S315100400D0039800F0E3FF0022284B00F0F9FF040018
S315100400E00D0001F0B7F8060000F0E8FF02000B005F
S315100400F02000290001F03AF90022214B00F0E8FF14
S3151004010001F0A8F8070020002900002280235B03D1
S3151004011001F0A3F901D8029701E0784202900498FD
S3151004012000F0BCFF0022154B00F0D2FF04000D00B6
S3151004013001F090F8019000F0C1FF02000B002000BE
S31510040140290001F013F900220D4B00F0C1FF01F054
S3151004015081F8070020002900002280235B0301F0A8
S315100401607CF901D83A0000E07A42029800903300F4
S315100401700199044801F08AF905B0F0BD0000E43F86
S3151004018000408F40007F0510F8B58AB008A857497B
S315100401900CC90CC006A856490CC90CC0554C2000F5
S315100401A001F074F908AA0621002001F083F9010070
S315100401B002D02000283042E02000543001F066F9C5
S315100401C00421012001F07AF9002803D0010020004F
S315100401D07C3034E02000AC3001F058F901F072F9AB
S315100401E0002802D00100444829E0444801F04EF9A1
S315100401F005A8019004A8009004AB9B1C07220021BB
S31510040200052001F063F9002802D001003C4816E0ED
S315100402103C4801F03BF906A8039007200290002001
S3151004022001900720009000236846028A418A002024
S3151004023001F064F900280BD001002000D83001F039
S3151004024025F93148016D802292000A430265F8E1CE
S3151004025086204000201801F019F90021002001F031
S315100402605EF900280CD001009E204000201801F0F1
S315100402700DF92548016D802292000A43026504E0B7
S31510040280B6204000201801F001F92048407A0028D1
S3151004029001D000F009FA1E49FB2001F0CBF9002821
S315100402A00CD00100CC204000201801F0EFF81648BD
S315100402B0016D802292000A43026504E0EC2040009E
S315100402C0201801F0E3F8E04800901048036BC26A66
S315100402D0817A407A01F016FA00281BD00100852095
S315100402E08000201801F0D2F8ABE100BF386B05107E
S315100402F0406B0510B0EA0410486B0510686B0510C6
S31510040300846B0510A46B05105C000020CC02002041
S315100403104808000095208000201801F0B7F8CBA5F6
S31510040320280001F0B3F8CA48417ACA4801F0AEF879
S31510040330C748817AC84801F0A9F8C548C06A009030
S3151004034001F0ACFA0700C54E01F0E2FA010000987C
S3151004035001F021FB310001F076FB01F09FFA020057
S3151004036000988021090401F0C7FB01D9504202000C
S315100403703900BB4801F08AF8B548006B009001F0CB
S315100403808DFA070001F0C4FA0100009801F003FB8E
S31510040390310001F058FB01F081FA02000098802127
S315100403A0090401F0A9FB01D9504202003900AD48F5
S315100403B001F06CF8280001F069F8A72080002018D5
S315100403C001F064F8280001F061F8A14880690090F2
S315100403D001F064FA070001F09BFA0100009801F09D
S315100403E0DAFA310001F02FFB01F058FA02000098F6
S315100403F08021090401F080FB01D950420200390022
S31510040400B9208000201801F041F8280001F03EF8C8
S31510040410C2208000201801F039F8280001F036F8BF
S315100404208B48808A694608806846008800F036FE44
S315100404300022CA4B00F04CFE06000F0000F00AFF23
S31510040440019000F03BFE02000B003000390000F072
S315100404508DFF0022C24B00F03BFE00F0FBFE0500B0
S3151004046030003900002280235B0300F0F6FF01D828
S315100404702B0000E06B42019A684601887AA001F0CD
S3151004048005F873488089694608806846008800F034
S3151004049005FE0022D44B00F01BFE06000F0000F0F0
S315100404A0D9FE019000F00AFE02000B00300039005C
S315100404B000F05CFF0022AA4B00F00AFE00F0CAFE10
S315100404C0050030003900002280235B0300F0C5FFCD
S315100404D001D82B0000E06B42019A68460188D420AB
S315100404E08000201800F0D2FF5948408A69460880D7
S315100404F06846008800F0D2FD0022984B00F0E8FD13
S3151004050006000F0000F0A6FE019000F0D7FD0200D1
S315100405100B003000390000F029FF0022904B00F048
S31510040520D7FD00F097FE0500300039000022802325
S315100405305B0300F092FF01D82B0000E06B42019A96
S315100405406846018850A000F0A1FF4148008A694618
S3151004055008806846008800F0A1FD00227F4B00F059
S31510040560B7FD06000F0000F075FE019000F0A6FD21
S3151004057002000B003000390000F0F8FE0022784B20
S3151004058000F0A6FD00F066FE0500300039000022DA
S3151004059080235B0300F061FF01D82B0000E06B425F
S315100405A0019A68460188DE208000201800F06EFF4C
S315100405B02748C08900F072FD0022684B00F088FDC0
S315100405C006000F0000F046FE009000F077FD0200D2
S315100405D00B003000390000F0C9FE0022604B00F019
S315100405E077FD00F037FE0500300039000022802325
S315100405F05B0300F032FF01D82B0000E06B42144D70
S31510040600009AE989E8208000201800F03FFFF120C5
S315100406108000201800F03AFFFFF752FD00F0EAF8C8
S315100406200400FFF74DFD687A002806D0B748016D1F
S3151004063004220A43026500F0A5F8002C01D101201A
S3151004064068710BB0F0BD00BFD80200200D0A00007F
S31510040650CC020020C06B0510D86B051000007A443C
S31510040660EC6B05100C6C05105363616E2057696EA4
S31510040670646F773A202564202825642E2564206D1E
S3151004068073290D0A000000005363616E20496E74CD
S31510040690657276616C3A202564202825642E2564BB
S315100406A0206D73290D0A0000F0B587B006AD012040
S315100406B02870A0276F70964C022206A920003430A9
S315100406C001F02EFA20001E3000900423012221008E
S315100406D03431012001F038FA01008E4E09D0300071
S315100406E000F0D4FE8948016D802292000A43026507
S315100406F003E03000283000F0C9FE022028706F7025
S31510040700022206A92000443001F00AFA20001C3007
S3151004071005900120049007200390012002900020E8
S3151004072001901E200090F423220044320121E08B14
S3151004073001F025FA00280BD0010030004C3000F0EF
S31510040740A5FE7248016D802292000A43026502E0FA
S3151004075004A000F09BFE07B0F0BD00000000E43FCB
S3151004076000408F406163695F676174745F6164649C
S315100407705F63686172202D2D3E20535543434553C4
S31510040780530D0A0018B589B007A800BF17A10CC9E4
S315100407900CC0FFF795FC5E48028A0020069005906F
S315100407A00490039007A8029008200190002000905E
S315100407B00023110001F002FA544C884A002808D08C
S315100407C00100100000F062FE206D802189000143B3
S315100407D006E010002C3000F059FE206DAF490140A0
S315100407E021650AB010BD00000000F43F096164766B
S315100407F07363616E10B5464800230022818A408ACD
S3151004080000F0E8FE0400A648210008D000F03EFEE1
S315100408103E48016D802292000A43026502E0383098
S3151004082000F034FE200010BDF0B587B00020374C20
S315100408302100374D6A7801E0401C0A31904202DAF1
S315100408400B78012BF8D18100081840002618AF89BF
S31510040850E88906900590380000F020FC0022914BA0
S3151004086000F036FC00F0F6FC80B2049000200390F1
S31510040870029701970090B31C7278A98A688A00F0CF
S315100408808EFE05008848290007D000F0FFFD206D74
S31510040890802189000143216506E0216D02220A4365
S315100408A022652C3000F0F2FD280007B0F0BD0000E0
S315100408B01CB5694618A213880B80144C22899042E1
S315100408C001D1002100E00A21611889787F2901D11C
S315100408D0382100E00F216B46022201F090F9C14A3B
S315100408E0002809D00100100000F0D0FD206D8021F1
S315100408F089000143216503E010002C3000F0C6FD89
S31510040900206D08218843206513BD00005C0000207B
S31510040910CC0200204C7505100100F8B588B00C0007
S3151004092000200490B0480790B04E09E0B38BF28BC8
S315100409304321AF4800F0AAFD0498401CC0B20490AD
S315100409400498317A884247DA400030180690878C2A
S31510040950E0B2B84200D2E7B20698008DF9B28142ED
S3151004096001D2FFB200E0C7B2002518E070196C304E
S315100409700390029700200190009701236846808A0D
S3151004098000F0BCFD002803D0A94800F07FFD23E049
S31510040990E41BED19EDB23900079800F077FD200637
S315100409A0CAD00698008C69468882F18BB28BE0B265
S315100409B0B842DBDA70196C3003900297002001906C
S315100409C0009701236846808A00F098FD0024432886
S315100409D0ACD00028DFD0AFE709B0F0BDF47805102D
S315100409E038B5944C206D400501D5FFF7CBFE7F4DED
S315100409F0E879012812D1687900280FD1A879A97A43
S31510040A0088420BD28C4800F041FDFFF759FBFFF7E3
S31510040A10F1FE002802D1E871FFF752FB0120216D87
S31510040A20014023D0A978AA798A4209D2236D9B075B
S31510040A3006D4FFF7F9FE00282FD1FFF741FB31BD8D
S31510040A40236D1B0708D52878810008184000201844
S31510040A500089FFF72DFF31BD8A421ED1226D8243D4
S31510040A602265AA7A8A4218D3E87131BD206D4006F0
S31510040A7013D5206D40218843206500232A79E9780F
S31510040A80BA4800F003FD687A002806D0206DC00528
S31510040A9003D4E9782879FFF740FF31BDFFFBFFFF48
S31510040AA0BC7505100000F43F48790510F8B586B0FA
S31510040AB00C00267A6078694608730622A11C04A8DD
S31510040AC001F02EF804A8417903291DD10179802952
S31510040AD01AD1A74D0178029141780191817800913C
S31510040AE0C37880220321280000F0D0FCE068417905
S31510040AF0029101790191C178009183784278017845
S31510040B0028002C3000F0C2FCE568002403E0295DBF
S31510040B106418641CE4B2B44261DA681C005D0928E6
S31510040B20F5D1324F062239005431681C001901F0F0
S31510040B306BF8002808D0062239006031681C0019A9
S31510040B4001F062F800284AD13A4E787800280BD082
S31510040B50340005460622A11C04A801F055F8002805
S31510040B6019D00A346D1EF5D1787881000818400022
S31510040B706946097B721C1154062204A9B31C181861
S31510040B8000F0CEFF7878012183001A185200B15470
S31510040B90401C787020E0002435006846797801708E
S31510040BA00622A91C04A801F02FF8002806D0641CFC
S31510040BB00A3569460978E0B28842F1D3E4B2A00056
S31510040BC0001940006946097B721C115430180178CB
S31510040BD0002904D101210170B878401CB87007B0FF
S31510040BE0F0BD00009C7905100C710510CC02002094
S31510040BF0A4700510F8B5A848A84C01270D4D296D09
S31510040C00394003D0A17900F041FCF1BD002666718C
S31510040C10A178503000F03AFCA079A17A884206D225
S31510040C20A078002800D16671286D07432F65F1BDA1
S31510040C307C7005105C000020D4740510FEB50028E5
S31510040C4073D168468180100032D1B84E306D0221BE
S31510040C508843306568468188B54800F017FC00243F
S31510040C608E4F7878002869D0350000900622A91C8A
S31510040C70089800F0C9FF002805D0641C0A350098AE
S31510040C8084425BDAF2E7A0000019400069468988BD
S31510040C90320008321152022131543C70306D082151
S31510040CA001433165B879401CB8710020787145E06C
S31510040CB0012A43D19E4E3000603000F0E7FB774D99
S31510040CC0287A40002818694689880184697900BF02
S31510040CD01BA000F0DBFB287A401C2872934C206D75
S31510040CE0042188432065AD89280000F0D7F9002235
S31510040CF0B74B00F0EDF900F0ADFA80B20090002386
S31510040D002A00103292B229006846808800F08BFFC0
S31510040D10002805D001003000A03000F0B7FB0DE02C
S31510040D20206D20210143216508E0AA4800F0AEFB9E
S31510040D307E48016D802292000A43026503B0F0BD1D
S31510040D40646973635F70726F6365647572655F69F6
S31510040D50735F6F6E676F696E673A2025640D0A00BC
S31510040D6080B5C14800F092FB01BD00001075051056
S31510040D70F0790510FDB582B001916846007B0090AC
S31510040D80A74C02460199200000F080FB00270020A2
S31510040D90664D424E29896A461289914201D13071B3
S31510040DA01DE00120698A6A4612899142F7D0022011
S31510040DB0A98B6A4612899142F1D00320E98C6A46BE
S31510040DC012899142EBD00420298E6A4612899142E7
S31510040DD0E5D00520698F6A4612899142DFD03379AE
S31510040DE0009A01992000403000F050FBA24C049860
S31510040DF08078322811D1049800792C280DD12070CE
S31510040E006846007B60706846027B0499A01C00F05B
S31510040E1087FEAA206421605410E06420205CAA286E
S31510040E200CD16846027B0499A01C6378C01800F0A4
S31510040E3077FE60786946097B40186070707A0028DE
S31510040E4027D06420205CAA280ED06846007BF07058
S31510040E506846027B049930006C3000F061FE286D00
S31510040E604021014329650FE02278607890420BD324
S31510040E70F270A11C30006C3000F052FE286D402137
S31510040E8001432965642027546420215C04A000F0E2
S31510040E90FDFA05B0F0BD0000A0720510CC020020CA
S31510040EA00A5374617274666C61673A2564200D0A7C
S31510040EB0000000007047F8B51C00704E300000F0BA
S31510040EC0E5FA6F4FB87800282ED069464C80002476
S31510040ED01BE003003000703000F0D8FA13E00E2047
S31510040EE069460880069B68464288D2B201882889DA
S31510040EF000F0A5FE29896A4612880028E9D1300037
S31510040F00303000F0C3FA641CE4B2B87884420BDAC9
S31510040F105C48A100091949004518A8787F2801D012
S31510040F20E028DCD13320DBE7F1BD00005C000020B3
S31510040F30505A051030B45248028C8A4210D1017AA4
S31510040F40002901D0491E01724E48016D04220A433C
S31510040F500265016D8022D2000A43026530BC7047D7
S31510040F608279002AFAD04378002B0CD0454C258977
S31510040F708D4205D100252570521E85786D1E85700B
S31510040F800A345B1EF3D18271E8E738B501003E4C92
S31510040F9019D1200000F07AFA224D286D20218843B9
S31510040FA028653748017A012911D1407A02280ED1D1
S31510040FB02000303000F06AFA286D042101432965B7
S31510040FC0FFF7E0FB31BD2000683000F05FFA31BD59
S31510040FD00000F43F2C5B051070B50C002A4D280058
S31510040FE0AC3000F053FA0F4E306D000617D5306D45
S31510040FF08021884330652248017A4A008218548435
S3151004100001290CD1407A022809D12800303000F089
S315100410103DFA306D042101433165FFF7B3FB70BD12
S31510041020C87305105C00002038B50D000498174CE1
S315100410300090200000F02AFA1148017A002912D0F3
S3151004104049004018C584C08B00F0FDFD002805D06A
S3151004105001002000803000F019FA31BD0948016DF5
S3151004106080220A43026531BD048005100548016DCE
S31510041070074A0A4002657047800400203C71051037
S31510041080CC0200205C000020246C0510F4710510BD
S31510041090FFFEFFFF10B500F0DBFD10BD010042227C
S315100410A01201D21E004207D002D4521E0018FCD5DB
S315100410B0C10A400512058918704700000100EED5D3
S315100410C04042F446FFF7EBFF0122D2071143604773
S315100410D0F0B50E005E400125ED072E40B446AE0A6B
S315100410E0DF184C18F44208D2F7420ED2640D01D020
S315100410F07F0D12D100206146F0BD05D1F74201D80B
S315100411007F0D05D10020C143F0BDFBD1640DF9D08C
S315100411100020C143490549088FE0E419C902DB02DE
S3151004112029432B43DB0A460DC00231438E4630B4A5
S3151004113087B295B27D432E0CADB2140C7C43A41920
S31510041140260C240425439CB27C43A419190C794318
S31510041150270CC919A4B20F043C43090C000C97B20E
S3151004116047432E0CBE193543ADB2170C4743360C04
S31510041170BF19A6B2BF193E043543240C3E0C3619CA
S315100411809FB24743BF19BCB23E0C89191F0C474383
S315100411907F183E043443390C704680B297B24743E5
S315100411A02E0CBE193543ADB2170C4743360CBF1976
S315100411B0A6B2BF193E043543240C3E0C36199FB211
S315100411C04743BF19BCB23E0C89191F0C47437F18FD
S315100411D03E043443390C77463F0C90B278432E0CB8
S315100411E080190604ADB22E43050CA0B22D18120CAC
S315100411F07A435019020C80B2240CA4189AB27A437A
S31510041200121914042043120C89181B0C7B43C91899
S3151004121030BCEF0A394203D1B61940414941641E24
S315100412206F12BF0DE41B0BDBFF19BC4211DA240548
S3151004123000274208AE417841614166463143F0BD0C
S31510041240641C05D1401C6141CF0201D34908F4E75F
S3151004125050E75DE7F4464A1805D200F00FF801D5B9
S3151004126080174008604700F009F80121C907884231
S3151004127000D90800404260474A1812D2400DC902EC
S3151004128008430121C9070843520D40210901521A86
S31510041290521C06D452421F3201D4D0407047C01794
S315100412A0704700207047F0B40125ED070F005F402A
S315100412B04FD48B4200D1824205D98446100062462F
S315100412C08C4619006346DF184C18640D7F0D3AD00E
S315100412D0661C760537D0E61B352E34DCDB022B4331
S315100412E0DB0A0C0DC9022943C912202E0DDB170087
S315100412F0203E06D01F00F741F3405F400026012A26
S315100413007741C01871410DD217E01700F741F2402A
S315100413105740F3415A40B340F3405A4000268018D0
S3151004132059410AD3A21C52050FD0C207012F72418C
S3151004133017004008CB0718434908641C24054208C3
S31510041340AF4170416141F0BC7047641C2105002017
S31510041350F9E76B4010E06B40ABE7F742F3D1E94392
S31510041360F1E72442EFD100200021ECE7F0B4012587
S31510041370ED070F005F40EED40C00871A9C4105D28E
S31510041380C01BA141D219634169406B40AE0ADF18F4
S315100413904C18F442E1D2640D7F0DE2D0E61B362ED2
S315100413A0D1DCDB022B43DB0AA4460C0DC90229430C
S315100413B0C90A012E28DC04D1D6075208DF073A439E
S315100413C05B08EF0A76429041994114D039423BD1D9
S315100413D0B61940414941761C394204D1761C00188D
S315100413E049413942FAD0B9436746B74208D9A41BD2
S315100413F024052143A7E70042EAD13642E8D1A2E701
S31510041400E40AE10700209EE7202E0BDD203E1F0094
S31510041410F340F7415F40012A002257417E4298412A
S3151004142091410BE01700F741F2405740F3415A40FF
S31510041430B340F3405A407E42904199410A0303D285
S31510041440641EB619404149410027641E240542080A
S31510041450AE4178416141F0BC704730B40124640553
S315100414604D00EC420BD85D00EC4208D80C001C432E
S3151004147064000443144304D28B4200D1824230BC2C
S315100414807047FCD09942FAD19042F8E70EB4C0B531
S31510041490020003A801900020009001AB012104482A
S315100414A078440C3000F000FC029906B0084700BFDF
S315100414B07F74010010B500F0B7FE10BD10B500F032
S315100414C041FF10BD10B500F05FFF10BD7CB5069D41
S315100414D0079C002805D0860705D1460703D40607BE
S315100414E001D442207CBD002903D0012901D0022950
S315100414F0F7D10095019401F011F87CBDF0B585B0D3
S3151004150084460AA8F0C868468581C68103A8019056
S3151004151002970094604601F0FFF805B0F0BD10B5CF
S315100415200A461F2801D9122010BD0146104601F0A3
S31510041530BBFA10BD80B501F0E5FA01BD80B501F026
S3151004154013FB02BD80B501F0E5FD02BD10B584B0F4
S315100415506C46A48C0394089C02946C46A48B019448
S315100415606C46248B009401F061FE04B010BD18B5CE
S3151004157083B008AC247802946C46247F0194069CAC
S31510041580009401F043FF04B010BD80B501F0FCFFD8
S3151004159002BD80B502F01AF802BD0120704718B5D5
S315100415A087B010AC248806946C46A48F05946C46B8
S315100415B0248F04946C46A48E03946C46248E029451
S315100415C06C46A48D01940AAC2478009402F042F877
S315100415D008B010BD80B502F06AF802BD80B502F0FD
S315100415E06BF801BD80B502F08BF802BD80B502F030
S315100415F0FFF801BD80B502F0F9F901BD80B502F01E
S3151004160055FA02BD80B502F059FA01BD80B502F053
S3151004161077FA01BD80B502F07FFA02BD80B502F0FB
S31510041620BFFA01BD80B502F0E2FA02BD80B502F040
S3151004163007FB01BD80B502F00CFB02BD80B502F0BC
S3151004164017FB01BD80B502F03DFB02BD80B502F06B
S31510041650CDFB02BD80B502F003FC02BD80B502F0DD
S3151004166029FC02BD0120704780B502F07DFC01BD46
S3151004167080B502F02BFD01BD80B502F043FD02BD1D
S3151004168080B502F05BFD01BD80B502F06FFD01BDB2
S315100416900120704780B502F0A3FD01BD80B502F0AC
S315100416A0BDFD01BD80B502F0F3FD02BD80B502F0AB
S315100416B009FE01BD80B502F01BFE01BD80B502F026
S315100416C02FFE01BD80B502F043FE02BD80B502F0C7
S315100416D061FE01BD80B502F091FE01BD80B502F038
S315100416E0A7FE01BD80B502F0F1FE02BD80B502F081
S315100416F023FF01BD80B502F04BFF02BD80B502F099
S315100417006DFF02BDF8B584B0070018000C0008215F
S31510041710C91BA14201DA01209CE0504900F0ECF902
S3151004172000D9481E0090100002F09CFF4CA20CCA6F
S31510041730FFF7B9FD02F0AFFF4B4902F0DDFF02F0EF
S3151004174091FF03F02FF849A20CCAFFF7C1FC02F06F
S31510041750A2FF02F087FF47A20CCAFFF7A4FD02F00E
S315100417609AFF464902F0C8FF02F07CFF03F01AF80C
S315100417700022494BFFF7ACFC02F08DFF0600601EF9
S31510041780FFF79CFC3EA20CCAFFF7A2FC04000D0056
S31510041790009802F067FF02AA03C2300002F062FF4B
S315100417A06A4603C20A9E002F04D1684603C8220063
S315100417B02B0007E034A003C822002B00FFF773FDAB
S315100417C06A460CCAFFF76FFD02AA0CCAFFF76BFD37
S315100417D002F061FF2E4902F08FFF02F043FF02F080
S315100417E0E1FF00222B4BFFF773FC02F054FFF0606D
S315100417F0F768380002F036FF02AA03C202A803C82B
S315100418000022244B02F0FAFFFFF724FD3080224D0C
S315100418101148390000F087F802F024FF00222B004B
S3151004182002F0ECFFFFF716FDB0800C20708002A8C2
S3151004183003C800222B0002F0E1FFFFF70BFDF08036
S31510041840684603C800222B0002F0D8FFFFF702FDFA
S315100418503081002005B0F0BD0000A0C0010020407A
S315100418609A9999999999F93F9A99114100000040CA
S31510041870333322409A9999999999F9BF0000203FD8
S3151004188033333333333322403333333333332D400B
S315100418900000A03F0000F43F0000E43F0122D207FD
S315100418A00118090E7F3910D449421F310FD400187C
S315100418B005D2C0011043C84000D5D0437047C001BB
S315100418C01043C84005D44042704700207047004278
S315100418D0F3D5100070470C0802170D01010209090F
S315100418E00101060209FFFFFFFFFF0909FFFFFFFFC2
S315100418F09D2102000AD002D4491E9218FCD5C905AE
S31510041900100A1206524100D3012A484170470000BA
S315100419109D210200EED55242F446FFF7EBFF012259
S31510041920D207104360470122D20703004B402ED43E
S31510041930431A01D2C01AC91830B44B180418240E0D
S315100419401B0E22D0FF2C20D0E31A182B1DDC090203
S315100419501143C40D641E0002104394461925ED1A52
S315100419600A00AA40D940451801D36D08A41CE40501
S31510041970D209280A2D062A436546AA41604103184E
S315100419801B0EFF2B01D3C00DC00530BC7047514050
S3151004199006E05140CCE70122D20703004B40F8D4AD
S315100419A0431A03D2C01AC9185040514030B44B18C8
S315100419B0090211430418240E1B0E40D0FF2C3AD0F2
S315100419C025009D410BD31ED8C50D4002401A0BD3DA
S315100419D0ED050100400AC90591416841D5E7C50DD9
S315100419E040024918401AD0D001214008491C001859
S315100419F0FCD58C4204D36D1A000AED054019C4E7D0
S31510041A00E8051040C1E7182DBFDCAC1C0D00E14001
S31510041A10E5414D40012D4941C40D00021043451ABC
S31510041A2001D46D199543641EE405280A2D069541C3
S31510041A30604130BC7047FF2BA7D1D843A5E7244299
S31510041A40A3D10020A1E730B405004D400122D207EE
S31510041A5015404B180418240E2ED01B0E32D0FF2C12
S31510041A6034D0FF2B3AD0E418000209021043114374
S31510041A70000A090A9446C2B24A43000AC3B24B4347
S31510041A80000A4843110A5B181A43D2B2190A0918F4
S31510041A9001D44918641E080A7F3C23DBFE2C08DA9D
S31510041AA0E40509061143634699416041284330BC55
S31510041AB07047FF20C005F9E728001B0EFF2BF6D14F
S31510041AC0D043F4E72800FF2CF1D1F9E74002F7D10F
S31510041AD0FF2B01D14902F3D1E005E7E7D805490206
S31510041AE0E4D0EDE743020020641CDFD15B129B1C9B
S31510041AF0DCD9D805DAE770470CB4012212060318AC
S31510041B00DA4207D84B18DA4204D802000A4392186C
S31510041B1002D281420CBC7047FCD088420CBC704780
S31510041B2010B5040002F0E6FE200010BD10B5040046
S31510041B30080011000200200002F0EAFE200010BD89
S31510041B4080B500F061F802BD70B586B014461D4626
S31510041B500A4603466946881C0A9E02F002FF0028BC
S31510041B6004D1012C04D0022C02D0422006B070BD40
S31510041B7023462A466946304602F006FFF6E7F0B5D4
S31510041B8087B01C460B46054600A9023101A80C9FD6
S31510041B900D9E02F0E6FE00280ED16846058084826A
S31510041BA08775C6750E9901760F99417610998176C7
S31510041BB06946119802F098FF07B0F0BDFFB587B0DB
S31510041BC0109D159E169C01930295009407A807C8AC
S31510041BD01F46334603F026F900280ED1139814999C
S31510041BE003AA069443C21198129901900095029182
S31510041BF007A807C83B4603F043F90BB0F0BD10B570
S31510041C0003F05AF910BD7047A446521E08D3037840
S31510041C100C78401C491CA342F7D0181B6446704725
S31510041C200020644670473EB56C46069D2080618050
S31510041C30A280E3802581684603F046F93EBD10B5BF
S31510041C4003F0BCF910BD10B503F0C0F910BD704710
S31510041C50F8B5074613480E4605687B2000012C1874
S31510041C60363503F0DBF903F0F3F93A20005D020789
S31510041C700120120F014691402A781207120F904044
S31510041C800143207D884309D06068000A3860606883
S31510041C9003F014FA000A30600020F8BD002030600A
S31510041CA03860F9E774040020F8B596B005001700FB
S31510041CB01E001C98049103A92B22885400200A9014
S31510041CC002950E9700960EE0252912D00498029AD2
S31510041CD090470490002800D1D2E00A98401C0A903C
S31510041CE00E98401C0E900E9801780029ECD10A9893
S31510041CF0C8E0002007900890099002260821019157
S31510041D00012404210E9D00E020436D1C2A78202A0C
S31510041D10FAD0232A0AD02B2A04D02D2A04D0302A0A
S31510041D2008D00AE03043F0E70843EEE70200082043
S31510041D301043EAE702001020FAE72A2A0ED1009A85
S31510041D4017683A683F1D009B1F600C92002A03D542
S31510041D5053420C93014308006D1C14E000210C91AE
S31510041D60004A0BE0CBCCCC0C0C9B934205DA9F00BB
S31510041D70FB185B00591830390C916D1C29780B002F
S31510041D80303B0A2BF0D329782E2903D00021C943DE
S31510041D900B9127E06D1C29782A2908D10099096826
S31510041DA00A68091D009B19600B926D1C1AE02D29F7
S31510041DB002D12D236D1C00E0002300210B910CE0B1
S31510041DC0002B09D10B9ABC4FBA4205DA9700BA1800
S31510041DD05200511830390B916D1C29780A00303A8B
S31510041DE00A2AEDD303A908852F783900B3A003F086
S31510041DF0A3F9002801D038006D1C03AF2A217854AA
S31510041E00785C682805D12878682802D1622078542D
S31510041E106D1C10A806902A78681C0E90252A15D0D9
S31510041E20582A52D0632A00D1BCE0642A00D17FE03C
S31510041E30692A00D17CE06F2A47D0702A3AD0732AD7
S31510041E4008D0752A41D0782A3FD0B5E0079410A956
S31510041E500A70BAE0009800680468001D00990860CA
S31510041E600594002C13D12B20385C00280CD00024A8
S31510041E70E44300BF93A003F069F9201A00D1A4E04B
S31510041E800020C04317B0F0BD95A005909DE00B9DB2
S31510041E90002D03D5200003F07DF909E02A00002166
S31510041EA0200003F07FF9002801D0001B00E0280071
S31510041EB008908AE0009800680168001D009A106076
S31510041EC0039110A80590782168E0785C622803D005
S31510041ED0682809D06C280FE0009801680868091D65
S31510041EE0009B1960C0B20DE0009801680868091DCE
S31510041EF0009B196080B205E0009801680868091D06
S31510041F00009B19600390388D0199C0B2084240D0E5
S31510041F10039800283DD020201043782839D10798FB
S31510041F2010A930230B54401C431C07930A5430E069
S31510041F30785C622803D0682809D06C280FE00098D2
S31510041F4001680868091D009B196040B20DE00098ED
S31510041F5001680868091D009B196000B205E0009825
S31510041F6001680868091D009B19600390002802D5B2
S31510041F7007982D2109E0388D304202D007982B217D
S31510041F8003E0C00705D50798202110AB1954401C4F
S31510041F90079010A8079940180590110003A800F09F
S31510041FA0A0F812E00794009800680168001D009AD2
S31510041FB0106010A8017008E00794252010A9087075
S31510041FC0100002D0079610A842700C980799401A70
S31510041FD00999401A0899401A0F902820385C40072E
S31510041FE013D42020694608710F9800280DDD0F9C24
S31510041FF0029D012301AA03A9280000F0FAF800287B
S3151004200000D03DE7641EF4D10295079D10AC002D57
S315100420100ED0029E227803A9300000F0D9F80028C9
S3151004202002D4641C6D1EF5D10296002800D027E751
S31510042030302069460871099C002C0CDD029D012391
S3151004204001AA03A9280000F0D4F8002800D017E745
S31510042050641EF4D10295059C089D002D0ED0029E97
S31510042060227803A9300000F0B3F8002802D4641CC7
S315100420706D1EF5D10296002800D001E72820385CA1
S31510042080400700D42FE62020694608710F980028CF
S3151004209000DC28E60F9C029D0E9F009E012301AAD8
S315100420A003A9280000F0A5F8002800D0E8E6641E6D
S315100420B000D105E6F2E70000CBCCCC0C686C747A40
S315100420C04C0000007072696E74665F733A20626128
S315100420D06420257320617267756D656E7400000047
S315100420E00000F0B583B00A00C4686F2901D1082531
S315100420F006E020211143782901D00A2500E0102595
S31510042100182701680E00642A01D0692A03D1002910
S3151004211001D571420E00002E0CD1016A002909D195
S31510042120082D31D12821415C09072DD517273021D7
S31510042130E17529E00290684602707F1E019730000F
S31510042140290003F03AF83031C8B23A2803DB68465E
S31510042150007851380918E1553000290003F02DF89C
S31510042160060004D002988068E1198842E5D30298E3
S31510042170082D09D12821415C090705D5E15D3029CF
S3151004218002D07F1E3021E1551821C91B4161E21985
S315100421908260026A914206DA511A8161018D0B4AF4
S315100421A00A40028510E0002A0ED52822825C1423E8
S315100421B01340102B08D1426A0369D21A8369D21AC2
S315100421C0511A012900DB816103B0F0BDEFFF000055
S315100421D010B503000C001100606898476060002871
S315100421E004D0E069401CE061002010BD0020C0430B
S315100421F010BDF8B50024002B11D007000E001400F2
S315100422001D0021787068B8477060002809D0F069FD
S31510042210401CF0610020641C6D1EF2D104002000E5
S31510042220F2BD0020C043F9E7F0B5444F04463868C0
S3151004223085B0783016460D46002C19D0062C11D0D0
S31510042240082C0CD0182C0AD0282C0BD02A2C09D0E8
S315100422502C2C0AD02E2C0BD0D02C42D043E0102D8F
S3151004226008D040E0022D05D03DE0012D02D03AE021
S31510042270062D38D10A4600193146FFF751FC2C2C8D
S3151004228028D13078002825D0FFF7ECF9012824D07E
S315100422901B201F304009401C41004118012002F048
S315100422A0E3FFFFF7DFF9012819D01B201F3040097F
S315100422B04100411822484078401AC01EC1B200207D
S315100422C002F0D2FF38684022403001781143F922D7
S315100422D011400170002005B0F0BDFB20D9E7FB20AA
S315100422E0E4E7012D04D0FFF7BDF9012804D007E077
S315100422F0107802F0C5FFEEE7D12C01D1082D01D0DC
S315100423001220E8E7022231466846FFF709FC02224A
S31510042310B11C01A8FFF704FC0222311D02A8FFF725
S31510042320FFFB0222B11D03A8FFF7FAFB6846838957
S31510042330028981880088FFF789F9CCE774040020A4
S315100423400805002010B5012818D8072916D80C4AF4
S31510042350126813462033187759778007C906000E7A
S31510042360090E01430020074BA03204E08401E4184F
S31510042370A172401CC0B2147B8442F7D8002010BD51
S315100423807404002000010020F0B55FA099B0006825
S315100423905E4915905E4A086884180922120282184A
S315100423A0526B2546403514922A7AD20702D06220FF
S315100423B019B0F0BDAA8B01235B029A4201D9AB83F3
S315100423C003E0172A01D21722AA83149AA030139273
S315100423D0067B0DE0761EF6B2139871010F18B868D5
S315100423E00F90384620220021FFF7A0FB0F98B86003
S315100423F0002EEFD120460830E0606460A0602460AF
S315100424000830139060612061FF220021083002F029
S3151004241048FF2046FF220021243002F042FF2046C6
S31510042420AA7F0021303002F03CFF2046FF22002113
S315100424303C3002F036FF00222A7210461721334B25
S3151004244005E0149E4701BE19401C7180C0B21E6877
S31510042450A036367B8642F4D8002028832F8C688CCD
S315100424600026149008E02820E16C704309182046D1
S3151004247002F01FFF761CB6B2BE42F4D3002608E063
S315100424803020216D70430918139802F012FF761C40
S31510042490B6B214988642F3D3012002F011FF012438
S315100424A0684604701B4941802346042269460CA8D9
S315100424B002F06AFA002822D16846018E81821649F2
S315100424C00183042606858475202108A881720024B8
S315100424D0C472047307214173847305A90DA802F00D
S315100424E003FB00280BD1684604874687818E15ABFB
S315100424F00EAA008E02F0F0FE002800D158E7002044
S315100425002872472054E700000000FFFF74040020DF
S315100425102C07000001180000052A0000FFB50C4620
S3151004252078A103C995B001910090002108A8017300
S315100425300321C90268464186012108A8734E017415
S3151004254035681746AE3502F0FBFE002808D17049EF
S315100425503068401802F088FFA878002802D0462078
S3151004256019B0F0BD0BA81599FFF748F80028F7D154
S31510042570072010A90871012C05D0022C0AD0002CB2
S315100425800ED04220ECE708A8017B1020014308A8CE
S31510042590017305E011A90BA8FEF7F7FF0028DFD198
S315100425A010A8027901230CA9284602F0EDF9002897
S315100425B07ED1022229461898FFF7B2FA298868466E
S315100425C081811521490201820784012686734E21D1
S315100425D008A881700024C4700671072141718671A0
S315100425E003A902A802F080FA002861D1022202A9E6
S315100425F01E98FFF795FA082F02D26846478502E01F
S3151004260008206946488569460C850B4628880AAA17
S31510042610098902F061FE00286DD13E49684601829F
S315100426200227078408A8847103A902A802F05CFA99
S31510042630002860D1022202A91F98FFF771FA684692
S315100426400470694644704F850B4628880AAA09897E
S3151004265002F042FE00284ED108A8007BC00723D002
S315100426602C496846C91C01820821018408A8877070
S31510042670047103A902A802F037FA00283BD1FF21FE
S315100426806846C1718171C170817041700170447165
S3151004269004716946082048850B4628880AAA0989C0
S315100426A002F01AFE002826D108A8007B800600E056
S315100426B021E022D52988684681811649A5310182EF
S315100426C00684867308A88770C47004710721417143
S315100426D0847103A902A802F007FA00280BD16946EF
S315100426E00E700C854E850B4628880AAA098902F0B5
S315100426F0F3FD002801D0472032E708A8007BA87014
S3151004270000202DE7626C75656E72672174040020D3
S31510042710EF060000012A0000FFB5002099B0239AA5
S315100427200B90129005461490064615901C46DB48ED
S315100427300B460068DA49229F41180391002108913B
S3151004274009915188069111880A913B214901401833
S31510042750007DC00706D00FA9184602F08FFE002888
S315100427600AD102E047201DB0F0BD10AA0F991B989C
S3151004277002F09CFE002801D06020F4E71998002886
S3151004278003D0600701D5012000E000201390A007B4
S31510042790800F1C90109817902030C078012840D1D3
S315100427A01798C04B01899942F9D11798069904686C
S315100427B00A98228C4118914233D82046203016901C
S315100427C08078012816D0E08B0490179880690078D9
S315100427D08006800F7ED0039840301890007A8007C8
S315100427E078D51C980028F5D0AE4F0F99FF372031B5
S315100427F0206814E0BA4214D3B942DDD80497E4E74A
S315100428000389A84A934203D12322125C012A08D0D1
S31510042810BB4203D12322125C012A03D000688842EA
S31510042820EED134E105900028FBD09C4809210268BA
S3151004283009025118496B0027009162E0780100994A
S315100428400390085A01055AD01999002901D08842D3
S3151004285055D105997A008B69511C595C9A5C090209
S31510042860891889B20D91890749D00222059902F077
S315100428702CFE002804D01998002840D0652072E751
S31510042880002008A9C8551C98C00718D01798806945
S315100428900078C00613D50D98C00710D00120C8556E
S315100428A00543009A039880184088159A904206D9D1
S315100428B01590009A0398105A0005000D14901C9850
S315100428C080071CD5179880690078800617D50D984F
S315100428D0800700E083E012D50220CA5D0543024357
S315100428E0CA5500990398401840881599884206D904
S315100428F0159000990398085A0005000D14907F1C32
S31510042900FFB266480068A030037BBB4296D8002D00
S3151004291065D01898007A00065FD4604801680920CB
S3151004292000020818416B00201BE042018E5A36053E
S3151004293015D0AE070BD556183669B7070DD408AFA0
S315100429403F5CBF0703D5360701D546200BE7EE07D4
S3151004295005D05218127CD20701D0432003E7401C3D
S31510042960C0B28342E1D81598C01E86B20498864236
S3151004297000D90646A8070FD520220020149902F084
S31510042980CDFD129000287DD0F01C82B20021129841
S3151004299002F0E6FD002811D1E80720D020220020FD
S315100429A0149902F0BBFD0B90002807D0F01C82B2DC
S315100429B000210B9802F0D4FD002810D0802002F0DC
S315100429C07FFC1298002802D0002102F0D1FD0B984A
S315100429D0002802D0002102F0CBFD6420C3E6A169D1
S315100429E00A98069A08182499FFF79AF81698807880
S315100429F0012801D10498E083002D46D0274B0920E5
S31510042A00196800020818416B002008AA0CE043015B
S31510042A10CF5A3F0506D05F18BC463B69175C3B434B
S31510042A2067463B61401CC0B21C4B1B68A0331B7B22
S31510042A308342ECD8A8070DD512980090F01C82B2E8
S31510042A4021461C310220A36902F0B0FD022012991E
S31510042A5002F0CBFDE80718D00B980090F61C21461F
S31510042A60B2B21C310120A36902F0A0FD139800280C
S31510042A7005D00B988021C07C08430B99C87401209B
S31510042A800B9900E005E002F0B0FD00206BE6422051
S31510042A9069E6802002F014FC9FE70000740400200D
S31510042AA02C07000003280000F0B5154A41231268CC
S31510042AB05B01D3181A6C154608321F2901D9302028
S31510042AC0F0BD00249E6B1F6C365D3E55641CE4B24B
S31510042AD0082CF7D3002405E00678641C1670401CF5
S31510042AE0E4B2521C8C42F7D3186C891D4170986B52
S31510042AF09D6318648033186A45800020F0BD000079
S31510042B0074040020F3B589B00D4602F094FD8002DA
S31510042B10800A01218905084300226B4610241146B8
S31510042B2001E0032A04D2D7000646FE401E7000E0D8
S31510042B301970521C5B1C641E2406240EF1D100234A
S31510042B4004AA6946099800F041FD03226946281D26
S31510042B50FEF7E6FF032204A9681CFEF7E1FF012035
S31510042B6028700BB0F0BD7047F0B5A1B001780E9186
S31510042B70456881681091C76801691C9140690024F1
S31510042B8017940490FF26169415941E940894A81C62
S31510042B9002F05AFD297800024906C90F0843386025
S31510042BA0681D02F051FD0002000A786028460830BC
S31510042BB002F04AFD29780002C90908430190284603
S31510042BC00B3002F041FD0002000A02907868000200
S31510042BD01A90800F012802D13878012800D00020DD
S31510042BE0129002980002810F012903D10199C9B2EA
S31510042BF0012900D0002114911A99890F02D139782C
S31510042C00012900D000211991800F03D10198C0B277
S31510042C1001281FD000212878FF4B05071868079054
S31510042C200246FF321B321F92FC4A2D0F82181D9248
S31510042C30002211920F920C9201221892E0301B92EC
S31510042C40027C0B92002A00D0012213920B9A012ABD
S31510042C5002D005E00121DEE7407C002800D10124E2
S31510042C600E98002811D001284ED0032D02D0052D20
S31510042C7000D001240498007E03286ED002286DD05B
S31510042C8001286CD004286AD09BE0032D06D0052DAC
S31510042C9004D0042D04D0012D05D009E0012407E049
S31510042CA001200F9004E01398002801D101201190FF
S31510042CB010981590801C1790109808301690049848
S31510042CC020300079032810D001280ED000220C924F
S31510042CD0049200280BD0012809D0002018900B98D4
S31510042CE0012806D0012D09D09FE00122EFE701202B
S31510042CF0F4E7012D74D1002900D00124149800287A
S31510042D0001D101201190BFE0002D02D0012D00D079
S31510042D10012404982030007901280ED000220C9248
S31510042D20199A002A01D0002809D001220492149A73
S31510042D30002A06D0012D09D01CE00122EFE700225B
S31510042D40F4E7012D16D10B9A012A09D00B9A002A01
S31510042D500ED0149A002A0BD00CE02BE028E02BE0BE
S31510042D602323079A5B01D2181279012A00D1012470
S31510042D7001221192129A002A02D00B9A002A06D125
S31510042D80002801D101220F92129A002A07D00B9A19
S31510042D90012A45D1002805D101201E9002E00B9886
S31510042DA001283DD1012D77D100296DD001246BE086
S31510042DB0052D06D1012404E01299002908D0002A11
S31510042DC006D000210F91032D04D0052D09D00FE054
S31510042DD00121F7E704992031497BC90706D107E099
S31510042DE023E004992031497B890701D501210C91EF
S31510042DF00C990491012111911099891C179110991C
S31510042E000831169110991591012A07D1012801D07C
S31510042E10042803D11999002900D00124052D28D09E
S31510042E20012D31D00E98012836D0179802F00CFCDB
S31510042E301599000209784906C90F0843099017988D
S31510042E40C01C02F001FC0002000A0A900E98012828
S31510042E5022D0169802F0F8FB159900020978C909D0
S31510042E6008430D901698C01C02F0EEFB0002000AEF
S31510042E701EE012990029D8D0012801D00428D4D1F3
S31510042E8001200890D1E707E001210798890240182C
S31510042E90C16D0991006ED8E71C98016940690A0250
S31510042EA0C303DB0F00041A43000A090E08430D92EC
S31510042EB01090002C72D11298002865D00B98002817
S31510042EC013D0139800285FD01A99386802F0C8FBFB
S31510042ED0514B01469D221868D2008218FF2905D04D
S31510042EE0FE2926D0C8008018C67981E0052D02D1A6
S31510042EF00E99022904D0F221095CFF2913D018E097
S31510042F000121384602F0D4FB41087F2903D0C100C1
S31510042F101D980818E8E708990498084301D0012475
S31510042F2066E0002464E0112189014118497EFF29D5
S31510042F3003D00E9901291DD013E0FF30072239461C
S31510042F400130FEF7EDFD344900200968F222505491
S31510042F5008464030C279EF231A40C2710E980128F0
S31510042F6001D0049C44E023204001081805E0012008
S31510042F700F903DE0232149014018C0790228CED292
S31510042F800C980028F3D0CAE71998002802D00B9899
S31510042F90012804D0139800280CD104E02FE0002057
S31510042FA0049C1B9024E02321079849014018007AB9
S31510042FB000281DD01A99386802F002FCFF2817D091
S31510042FC0C1001D980818C67937201F9970434018F8
S31510042FD0017D002900D001212030807D002803D0F6
S31510042FE00020002902D003E00120FAE7002896D138
S31510042FF0094801681120800108180675467513984A
S3151004300000284ED0FF2E10D0089800280DD0024864
S3151004301001681120800103E0740400206C04000090
S315100430200818807DB04200D001241E9800280BD0C9
S31510043030FF2E09D036480168112080010818807EB9
S31510043040B04201D0012445E0002C43D11498002845
S3151004305029D0012D27D12E4B019A1868C11DF9319B
S315100430600D69AA4205D1029A4969120209028A42D5
S3151004307019D01125AD014119497E189CFF2910D18B
S31510043080FF30072201A90930FEF74AFD2048EF2335
S31510043090016808464030C2791A40C27100204919A5
S315100430A04876002C16D11B98002813D00C98FF2EA6
S315100430B007D000280ED0372046431F983018807842
S315100430C006E0002806D078680102386802F0A0FBF2
S315100430D00028B7D00F98002807D00D983968884271
S315100430E010D11098796888420CD1002C0AD1119805
S315100430F000280AD001990998884203D102990A989E
S31510043100884202D0012021B0F0BD0020FBE7000068
S3151004311074040020F8B502F0A7FB434C0746216857
S315100431200A468031886FCB6F381A1818C8674B6FE8
S31510043130000B984236D30020E032C8675074107CD6
S3151004314000282BD00025232676010BE0372169436E
S3151004315008180146FF31FF3040313030FFF7D2FCFA
S315100431606D1CEDB220688119097AA942EED80025A2
S315100431700BE03721694308180146FF31FF30473108
S315100431801F30FFF7BFFC6D1CEDB220688119097A58
S31510043190A942EED821680120891988712168012075
S315100431A0E03148742068F8210F5072B60146403158
S315100431B0CA7910231A43CA7162B60146E0310A7CF1
S315100431C0002A24D0897CFF25002906D1FF3001303E
S315100431D002F06EFA2068E030857411262168B60173
S315100431E08819407EFF2813D0372250434018FF30E9
S315100431F0FF3100223030093102F040FB002808D09C
S31510043200216800208919C875206880194576002020
S31510043210F8BD206801218219FF30D175013081680B
S315100432200161C1684161EFE774040020FFB593B0F2
S315100432300546002772480297039700880C46704982
S315100432404007C00D0C314018C089012149074018A8
S315100432504088FF2346186B481121006889014118DC
S315100432604A7D3721514309181B335B5C0793F37965
S315100432709B09012B04D133785B0601D5012300E0A9
S315100432800023069323235B01C0184079012816D91D
S31510043290FF2A14D0002D04D0707B8009012805D094
S315100432A00DE00622FF3102A8413106E0307800060F
S315100432B005D531460622083102A8FEF731FC0698D8
S315100432C0002833D04F480168112080010818407D2A
S315100432D0FF2826D00622B11C6846FEF721FC079863
S315100432E04949C7004748062200683818411820463D
S315100432F0FEF716FC4348016823207A18400110187B
S31510043300007B3722801CA071112080010818407D93
S3151004331050434018FF300622B11C4830FEF700FC1B
S3151004332006E00622B11C2046FEF7FAFB0097019729
S315100433303448A4210068095CC90701D0002600E0BE
S31510043340102615990D9109956168169F0902090EA3
S315100433500C9102A90E9169460A911C9908911D991E
S3151004336007911E990B940903090C06911F990823BA
S31510043370C9B280361191F10603D50B22BF210E4036
S3151004338009E03721490141184A78920635D5C9789A
S31510043390890732D509223107890E08180121C90275
S315100433A040184069314602F083FA040025D00D987E
S315100433B02071E780099820720C9860722046251DAA
S315100433C006220A300B99FEF7ABFB284606220C3070
S315100433D00E99FEF7A5FB2846062212300A99FEF727
S315100433E09FFB08982883079868830698A8831198E2
S315100433F0A8772146304602F0B9FA17B0F0BD00009E
S31510043400C0000020740400206D040000FFB55B4961
S31510043410964609685A4A8DB08D18372252018A1871
S31510043420944652781127169B04920C46BF0100202D
S31510043430179E9206A034CF190833002A3DDA624645
S31510043440D278520739D50D9A012A36D97246012AED
S3151004345033D10E9A002A30D03A7D0120FF2A19D092
S315100434606F4649C7372042435018FF300130807EDB
S31510043470C000411843480B182079C00701D000201A
S3151004348000E01020A12108437146109A10E0012093
S3151004349011B0F0BD694649C12079C00701D000209A
S315100434A000E01020A121169B0843012271469B1CA3
S315100434B002F070FA00285CD1E9E7F022525C012A86
S315100434C0E6D13F7DFF2FE3D02079C00701D0002439
S315100434D000E01024A1200443704607901098099028
S315100434E0372047437818FF300130807E0593C0009B
S315100434F0421824480B961018089018980290032224
S3151004350013301043401C8308E00603D50722BF205E
S31510043510044007E004988006B9D560468078800791
S31510043520B5D505222007800E40180121C90240187E
S315100435304069214602F0BCF906001AD0079830718A
S31510043540099870713546371D18350622B01D08992D
S31510043550FEF7E6FA02983872FD602846029A059933
S31510043560FEF7DEFA0B9838743146204602F0FEF95F
S315100435708DE7296A0020087089E70000740400208A
S31510043580040900006D0400007CB50446E1200D46D4
S31510043590800002F045FA0BA103C900900191684618
S315100435A002F050FA012002F06DFA002801D04720EB
S315100435B07CBD207820210843207009202870002023
S315100435C07CBD00001F0200000000000030B50D464F
S315100435D01D49144609684122520189180922D20646
S315100435E0096D126991B0891A184A09021288090AD2
S315100435F012070AD5002B08D1154AFF39914204D374
S315100436002246294602F042FA1AE00146102204A87C
S31510043610FEF786FA1022294608A8FEF781FA04A8AE
S31510043620009008A801900CA802900020694608731F
S31510043630684602F06BFA10220CA92046FEF770FABF
S31510043640002011B030BD000074040020C00000201A
S3151004365002FF7F00FFB58DB0144618AAECCA049772
S315100436606F466CC70A46014605A8179B02F088FAEE
S3151004367000280AD108A84471012C08D0002C06D0C1
S31510043680022C04D0032C02D0422011B0F0BD09A89C
S31510043690062202301099FEF743FA08A91698087301
S315100436A0C0B20328F0D805A802F09CFAEDE710B5CD
S315100436B002F0CAFA10BD704738B5104800210468E4
S315100436C00846AE3402F0E4FA694648702079C10718
S315100436D004D001216A46117088432071C0B2810753
S315100436E005D502216A461170FD2108402071022178
S315100436F06A46084602F0EAFB38BD0000740400204E
S31510043700FEB539490922096812028A18136B582220
S3151004371042439C18412252018D183449800146189F
S315100437202289208F2021895D521C228140006269E2
S31510043730002700B2101A6061F07A4018C0B225282A
S3151004374000D32538F072A079C0072ED02846403011
S315100437500090408E2189401A0004000C25D123487C
S315100437600C3800884007400F02F0EAFB8446A07923
S3151004377040084000A0712846C030017A4908490023
S3151004378001720099A3894A8DC98D0905090C9342C2
S3151004379005D1A3698B4202D16346002B01D0402781
S315100437A001E008238373A281A161A079800719D54A
S315100437B07620405B2189401A0004000C12D1802126
S315100437C0495960350091A97E0191A179FD221140D4
S315100437D0A171314668460522213102F0D7FB01203A
S315100437E0400507433846FEBD74040020CC00002073
S315100437F0F0B58FB0076841680A917949794A096822
S31510043800008989180B91012109910021089140051D
S3151004381014D50B988469C6692078617B05072D0F2A
S315100438208909012903D1C00901D0012000E0002033
S315100438300890022D0CD9062D08D109E00B983C6B83
S31510043840066A207805072D0F042D01D00020099053
S31510043850E0798009012804D12078400601D5012198
S3151004386000E0002160480170E020C05D00283DD0D2
S3151004387001208646002084463078132100901DE0EE
S3151004388000200D9042182318B25C9B789A4201D0FE
S3151004389001220D92401CC0B20628F3D370460028AC
S315100438A004D00D98002801D0012000E0002086469F
S315100438B0891F6046401CC0B2C9B28446009884452C
S315100438C0DED3704600287AD00098401CC0B2042873
S315100438D000D9042030701222711CF01D02F056FB20
S315100438E0314606221331A01C02F050FB062D02D0DD
S315100438F0022D02D002E0022500E0032520784006BE
S31510043900C00F0490012D0AD06078801FC606F60EEB
S315100439103348F0210068095C012914D02FE00026F1
S315100439206946204602F03BFB2D480068E030007CD7
S315100439300028EDD10098396888424FD101987968EA
S3151004394088424BD11BE01121890141180A7DFF2AB7
S3151004395015D025490B78012B01D102234B7037233F
S315100439605A431218FF320132927E4978D200101847
S31510043970232252018018007B4018C0B20490099883
S3151004398000282BD00A982037807B02960094019049
S3151004399038792A46049B0899FDF7E9FD00281DD1BC
S315100439A00A982146807B029008310D4800960191B1
S315100439B00068A0300079C00702D0002001E00DE0B5
S315100439C01020A1210843A31C2946049A02F0F2FAF6
S315100439D0002803D00B980021006A01700FB0F0BDC7
S315100439E074040020040900007C040020FEB52D494F
S315100439F00B68412149015C180921090259180A6BFF
S31510043A007B2109015D18012601E0401CC0B208287B
S31510043A1042D22F7D314681400F42F6D05821414380
S31510043A20891889784907490F0529EED10021009193
S31510043A3001917D2521466D02C0314D81887358212F
S31510043A4048438518184605226946483002F09EFAFE
S31510043A508020009901517A2101980855A8890622D7
S31510043A60298950430930081887B2696B0E480860D3
S31510043A70686B05228760687930436871696B68469C
S31510043A80C91C02F083FAA8790221C006C00E0843A5
S31510043A90A8714034E786FEBDC034207AFD21084063
S31510043AA02072FEBD74040020030801000278090781
S31510043AB0090F0A43027000207047704730B50E484C
S31510043AC085B005682C46AE352879BA34400711D529
S31510043AD0E87A01280ED11521490268464180012150
S31510043AE0017060886B46054A02F0AEFA002801D1CF
S31510043AF00220E87205B030BD74040020FFFF0000F8
S31510043B0003480249C16003494161704781E20410C8
S31510043B1054040020A9DB04107FB5AC218172817B8B
S31510043B2005468A072A350446002A09DA1022002196
S31510043B306846FDF7FBFF69462B460A46AD250FE09E
S31510043B40C80701D1480719D521464A312246E07AD9
S31510043B505232000701D52B4601E023463A33AE25EF
S31510043B6020890005000D02F0AFFA00280BD03A2880
S31510043B7001D00C2800D1002004B070BDC808C000C4
S31510043B80A0734620F8E7A17BCA0703D0102211437D
S31510043B90A173F125C9B2C908C900A173A572EBE7CF
S31510043BA010B57421095CC9070BD1817AA42909D0EF
S31510043BB0AC2916D0AF2904D1417F002914D0D021C5
S31510043BC0817210BD04461021543002F0EBFAE07AEB
S31510043BD00007204602D5FDF769FD10BD02F0F2FA82
S31510043BE010BDFDF717FD10BD02F01FFB10BD10B57B
S31510043BF004684168A268FF20137B8A7A002A0DD0D4
S31510043C00F12A0BD0A12A0FD0A52A13D0A62A04D1A3
S31510043C10042B02D1204602F025FB10BD0B2BFCD140
S31510043C20204602F091FB10BD022BFCD1204602F077
S31510043C30CDFB10BD032BFCD1204602F0FDFB10BDBD
S31510043C4010B50146807AA92802D1002002F0F4FBAF
S31510043C5010BD70B50C460546FDF704FD002804D0CA
S31510043C602146284602F014FC70BD112070BD704721
S31510043C7070B5134909220968120200208B18AC2268
S31510043C80525C1AE058241D6B44432C1954252D5D9F
S31510043C90ED0610D5412040010818C030428A018A29
S31510043CA0608902F01DFC3A2804D04034207DEF21AF
S31510043CB00840207570BD401CC0B28242E2D870BD67
S31510043CC074040020FFB50746464881B000880D46A7
S31510043CD0454909220968120240078A18400F126BD7
S31510043CE0582358431418412040010E18FDF7BAFC06
S31510043CF0002822D0142D04D0152D20D0072D59D0EC
S31510043D005CE02146039802F049FC012120698904EC
S31510043D100843214640312061087D0222104308756C
S31510043D20820609D56279520852006271DF22104068
S31510043D300875002F4ED151E0012005B0F0BD25467F
S31510043D404035287DC007F7D02146039802F026FC9B
S31510043D50204600F085F8002825D0A18FE08F8142F7
S31510043D6000D20846E8806989A889814200D20846AB
S31510043D7068822A89E9898A4200D211462982628F89
S31510043D802888824200D21046C9080E3989B2688042
S31510043D90884200D30846A880049800680121490681
S31510043DA0084304990860287D400840002875002FB0
S31510043DB010D113E00398C078142802D0002005B05F
S31510043DC0F0BD4034207D042140084000084320758E
S31510043DD0002F03D00820C036F073ADE70820C03694
S31510043DE0B073A9E7C000002074040020F8B51C467F
S31510043DF015460E460746FDF735FC002805D002F099
S31510043E00E9FB002803D00C20F8BD1120F8BD124997
S31510043E1041220968520189183A4600201B3AE12AC0
S31510043E2000D330203346FF3B0C4A493B934200D320
S31510043E3030202B461B3BE12B00D330202346FF3B7F
S31510043E40493B934200D3302072B6C0318F82CE8262
S31510043E500D834C8362B6F8BD74040020010700007C
S31510043E6070B50146403004884A8F0025944200D329
S31510043E701446C28903899A4200D21346CA8F898F7F
S31510043E808A4200D30A46868941898E4200D2314637
S31510043E904688A64200D00125C488944200D0012544
S31510043EA0028A9A4200D00125408A884200D0012510
S31510043EB0284670BD70B5032102F0B2FB082801D361
S31510043EC0022070BD26490922096812028918096B55
S31510043ED0582250430C186079666B800701D03A203B
S31510043EE070BDE18FA08F02F0DFFB25464035E880D8
S31510043EF0A989688902F0D8FB68822988608F02F044
S31510043F00D3FB6880E989288902F0CEFB2882C00891
S31510043F100E3881B2688802F0C7FBA8801148306059
S31510043F20656B204602223C30E91C02F02FF820462D
S31510043F300222691D4A3002F029F820460222E91DA0
S31510043F403A3002F023F82946204602220931483035
S31510043F5002F01CF86079012108436071002070BDDD
S31510043F607404002003091500F0B5574D1B20296869
S31510043F7080010818007E91B080076FD502F0AEFB61
S31510043F8001286CD1002402F0ADFC064602F0ACFB0D
S31510043F90012800D1032430007ED0372702267F0162
S31510043FA0012802D002287CD13BE06946022002F0A7
S31510043FB04EFC032008A902F04AFC002C06D17921F4
S31510043FC0286809014118012002F041FC2868A4213F
S31510043FD0095CC90701D0002100E010210E4369468F
S31510043FE011231091F10603D50922BF210E4007E0D3
S31510043FF0C1194A78920654D58978090651D50722EB
S315100440003107890E09180120C00208184069314683
S3151004401001F04EFC070044D0381D3C714022109923
S3151004402036E06946022002F012FC002C04D020224D
S31510044030FF216846FDF77AFD2868A421095CC907A3
S3151004404001D0002100E010210E436946092308918E
S31510044050F10605D50A22BF210E4009E029E030E019
S31510044060C1194A7892061CD5C978C90719D00822ED
S315100440703107890E09180120C00208184069314613
S3151004408001F016FC07000CD03C71381D089920224B
S31510044090401CFDF745FD00E003E03946304601F0CB
S315100440A065FC1B20296880010818017EFD22114039
S315100440B0017672B6286880224030C1791143C171E5
S315100440C062B611B0F0BD00007404002010B50128CA
S315100440D013D10A4C08222068817E1143817620224E
S315100440E007493C30FDF71CFD054920682022203184
S315100440F05C30FDF715FD02F0FFFB10BD78040020BF
S315100441009478051030B50446C07A0025000710D5FA
S31510044110208902F001FC002801D0082509E0E07A84
S3151004412001210843E072044804220068817E114389
S315100441308176284630BD00007804002010B50A4C5C
S315100441402068807E41060DD5902108420AD102F0DE
S3151004415003FC002806D12168BF22887E10408022E5
S315100441601043887610BD00007804002070B50468EA
S315100441700579E07A00072FD5208902F0CDFBE17A84
S3151004418049084900E172154C002804D12168FB2323
S315100441908A7E1A408A762168002D05D0CA7E10328E
S315100441A0CA76002804D007E0C87E401CC87603E00F
S315100441B0887ECF221040887620680321C07E0509A8
S315100441C00007000F00F0F9FF4019032804D302F08A
S315100441D0E1FB21680020C87670BD00007804002039
S315100441E070B50D4D0178441C2868827E5206520E15
S315100441F08276002902D002F0CDFB70BD02F0D6FB08
S31510044200002802D002F078FB70BD286840222146AF
S315100442103C30FDF785FC70BD7804002070B51A4C4F
S3151004422002782368411C987EC00626D5002A05D03C
S31510044230164800210068A030027B21E0184620228F
S31510044240D030FDF76DFC20682022817E114313E0E7
S315100442507C20DD6F4843281810D00589002D0DD019
S31510044260C57A2D060AD5012300220B2102F0A6FBDE
S315100442702068CF22817E1140817670BD491CC9B257
S315100442808A42E5D870BD000078040020740400202A
S3151004429010B50B4A016812688968927D4068C97B1B
S315100442A0022A03D10A0701D4032010BD1823C27AA7
S315100442B0DB4319430A40C272FDF7DEF910BD000054
S315100442C07804002010B5C17F012908D0042906D02E
S315100442D0022907D0032901D102F086FB10BDA521BE
S315100442E0817210BDC17B491CC17301F06BFF10BDF7
S315100442F010B5C17F012908D0042906D0022909D096
S31510044300032901D102F070FB10BD0146002002F012
S31510044310B1FB10BDC17B491CC173B521817210BD9F
S3151004432038B514C8D07F02280FD10848D17B00684D
S31510044330491E03690094CB40DB070146DB0F90311D
S315100443403C305432803302F0D2FB38BD780400205E
S3151004435038B514C8D17F0023032904D00C48022988
S31510044360006804D00AE0AA209072EB2038BDD17BF5
S315100443700369491ECB40DB07DB0F803301463C3112
S3151004438090306432009402F0B2FB002038BD000075
S31510044390780400201CB50446C07F042806D0AA2140
S315100443A0022820D0012800D1A1721CBD01A80090BA
S315100443B0104823460068224601466433543290312D
S315100443C03C3002F0BCFBB920A07201A802F0E3FB5A
S315100443D0094900F0F2FE20890A460105090D02205A
S315100443E002F0E4FB1CBDE07B1428DDD2A420A072ED
S315100443F01CBD00007804002040420F0038B514C8D4
S315100444000A48D17F00230068022906D1D17B0369AB
S31510044410491ECB40DB07DB0F8033014690313C301D
S315100444206432009402F063FB38BD00007804002067
S31510044430FEB50468416802918668C568BA2028707A
S3151004444000203060E17F1F4804291ED002291BD1A9
S315100444500068E77B01697A1ED140CB070299009167
S315100444600146DB0F224654323C319030803302F041
S315100444703EFB214610222A310298FDF761FB30607B
S31510044480142F01D2B4202870FEBD01A90091006832
S31510044490234601462246643354323C31903002F0AE
S315100444A04EFBB920287001A802F075FB064900F0EE
S315100444B084FE20890A460105090D022002F076FBC6
S315100444C0FEBD00007804002040420F0070B504467B
S315100444D0174801250268402100203C3202F092FB65
S315100444E000280AD1134879210068090142182021AD
S315100444F0002002F087FB002803D0002502F04AFAB8
S315100445000EE0E07AC1434906890F09D07421095D8A
S315100445100025C90706D0400602D5204602F082FBC4
S31510044520284670BD8106FBD49B210840E072F4E74F
S31510044530780400207404002010B50446807AAA2852
S315100445400BD0BA2809D0B92810D07420005DC00742
S3151004455002D12046FDF76AF810BD204602F098FBFA
S315100445600028F9D0012300220B210DE0E07F042856
S31510044570F2D1E07E410602D5BA20A07210BD000623
S31510044580FCD5012300220C21204602F017FA10BD97
S3151004459010B5036841689A68FF20147B8A7AA22AA8
S315100445A00BD0B22A09D0AB2A01D0BB2A04D10D2CC8
S315100445B002D1184602F0BEFB10BD0C2CFCD174229D
S315100445C0525CD207CA7A05D05206F5D4184602F0C0
S315100445D0EBFB10BD9206F9D410BD7047F8B502680E
S315100445E041689268FF20137B0E2B13D1CB7ADB061E
S315100445F010D5CB7F022B0DD14B7E022B0AD17423FF
S315100446005B5CDB078B7A06D0B22B0AD0B42B08D0AE
S31510044610B52B06D0F8BDA22B03D0A42B01D0A52B05
S31510044620F8D10889372105050D4849010068022685
S315100446304118C97A2D0D547B012349060ED5022142
S315100446408F020830C0191C22406901F031F90100AB
S3151004465004D08D808C71304601F088F90020F8BDA5
S3151004466074040020012212060118CA420AD28A4290
S315100446700DD83822120609098918C20FD207114318
S315100446804007704700D049080909014301E0C10FEA
S31510044690C90700207047012252054B18DA4201D986
S315100446A0581570475B0D0722D2019B1A10D9FF2BA0
S315100446B01DD2DB050122D2070A4013430903020D5A
S315100446C01143490AC200524100D9491CC8187047FF
S315100446D00AD1800A0A0302435212921C04D9D30740
S315100446E00B40D00518437047C80FC0077047C80F52
S315100446F00002FF30C005704730B405004D4001225A
S31510044700D20715404B180418240E28D01B0E2FD090
S31510044710FF2C34D0FF2B37D0E41A000209021043C1
S31510044720114343084808D10D1B1A02D2641EDB1824
S315100447301B18DB18834200D31B1A4941F9D37F3463
S3151004474026DDFE2C08DAE4054808C9071943914109
S315100447506041284330BC7047FF20C005F9E72800A4
S315100447601B0E03D0FF2BF5D14902F3D0D043F1E74A
S31510044770FF2C01D14002F9D1FF20C005E9E7400220
S31510044780F4D1FF2BF8D1F1E728004902E2D0EDE786
S315100447900B0200202442DCD15B129B1CD9D9D8050C
S315100447A0D7E770474A00520DFF239B009B1CD21A71
S315100447B019DD35239B1A1EDD1300153B09DA9B41BF
S315100447C0DB0AD340094201D4401E594100209943C3
S315100447D070470022D243DA40094202D400238018DB
S315100447E05941904370470B0D5B0500D0024901D324
S315100447F00121C907002070470000F03FF0B40E00F5
S315100448005E400125ED072E40B446AE0ADF184C185B
S31510044810F4423BD2F74241D2640D43D07F0D38D0D7
S31510044820E41BC902DB0229432B43CF0ADB0A060029
S31510044830B61A9F4104D2641EB6197F41B6185F4159
S315100448406812800D24180018844222DAE80C00211C
S31510044850B6197F41B61A9F4102D2B6185F413F1C62
S3151004486040414941F4D3241C21DD2405B6197F4166
S31510044870B61A9F4105D33743C60737430026012F7F
S315100448807041614166463143F0BC7047FCD1F74232
S3151004489005D20020C14349054908F3E704D0002096
S315100448A0C143F1E77F0DFAD000206146ECE72442BC
S315100448B0FAD1401C61410F03F6D30020E2E770479A
S315100448C070B4103A03D378C9103A78C0FBD25307A0
S315100448D001D318C918C001D508C908C0D20704D312
S315100448E00B880380891C801C002A01D50B78037061
S315100448F070BC70478B0701D18307E1D0124205D0F3
S315100449000B78491C0370401C521EF9D1704770472E
S315100449101206130A1A43130C1A4300BF094205D090
S31510044920830707D00270401C491EF9D17047000056
S315100449300022FFE71300103906D330B41400150013
S3151004494010393CC0FCD230BC490700D30CC000D58A
S3151004495004C0890002D30280801C002900D502708D
S31510044960704770B51C4613460D46012C03D0022C15
S3151004497003D0422070BD022200E010221946FDF732
S31510044980CFF82C70002070BDFFB58FB014460E788A
S31510044990102205A8891CFFF7ADFF4F484F49006840
S315100449A0451802F055FA00281ED1002C57D0012EB6
S315100449B009D16846808A4A49884204D12846A9689A
S315100449C0083081424BD12846103029690390814220
S315100449D009D00AA9284602F057FA6846018D601EC6
S315100449E00D90814202D2482013B0F0BD28460830FB
S315100449F00CA9049002F048FA6846008E002814D0D8
S31510044A00EF680AA93846183002F03EFA38462030C4
S31510044A100CA902F039FA6846398D008D09186846D2
S31510044A20008E401C081887B200E0012701200004FC
S31510044A30C01BA04201D26120D6E72C6928680190D8
S31510044A401298012802D0022803D008E00520C002DB
S31510044A5000E024486085012E03D0022E05D04220A2
S31510044A60C2E720460830022202E02046083010220F
S31510044A7005A9FDF755F82046314620300646017340
S31510044A800F98214607802785039802F007FA2146D6
S31510044A90049800F00EFC27461837E7616662A76192
S31510044AA026620D9884B20BE02846019902F0F6F9B5
S31510044AB03846019900F0FDFB2868641EA4B20190E3
S31510044AC0002CF1D10F9801880D98081882B2002095
S31510044AD002F0F4F9002087E7740400202C07000084
S31510044AE00118000001280000F3B5A5B008881A9033
S31510044AF088780C4611901022091D13A8FFF7FAFEA8
S31510044B00A08A1090A17D68460172E07D0F90207EE8
S31510044B102090677EA07E1F900020064601461290C4
S31510044B2020A801810F20BB4C2390BB492068401854
S31510044B30199002F08DF900280BD101211098490221
S31510044B4088425FD821A91A9800F098FC002802D050
S31510044B50602027B0F0BD2198179002F0D3F91A9966
S31510044B6088420CD102A801901698009013AD0ECD70
S31510044B70119802F0CFF9002801D06320E9E76846BE
S31510044B80017A8806800F05D0012012902068A03083
S31510044B90007B4600C80703D01298401CB61C12901E
S31510044BA0080603D51298401CB61C129017980DA926
S31510044BB018301D9002F068F96846129C808EA41C69
S31510044BC0A04237D317980EA92030019002F05CF951
S31510044BD06846018F00290DD01798179A6B46406ABC
S31510044BE09B8E128D5918808B5118081AA04201D227
S31510044BF06120AEE71798846911982568012803D0B7
S31510044C00022803D04220A4E7052000E01320E08305
S31510044C102A4639460F9802F0B5F9422899D0199FB9
S31510044C20E28B4037788B398B411A109810188019FB
S31510044C30814201DA48208CE70EA9019802F024F982
S31510044C406846008F0028179802D0406A808B00E0CF
S31510044C50008D2599401C0880259801210088A08381
S31510044C60259802220088401CA8836C48208120467F
S31510044C7020301790C1700021817081711998398B79
S31510044C80406D40186946A061097A0170A0692946E9
S31510044C901C31401CFCF744FF11980128A0697DD0F3
S31510044CA0102213A9C01CFCF73BFF2846102213A997
S31510044CB00830FCF735FF388B133038832E462036F0
S31510044CC01198F0701098E8831F98B070109820848B
S31510044CD0109828841998398B406D4018A8610021C2
S31510044CE0109AFCF723FF398B1098081838831799F4
S31510044CF00120087117990020487130716846007AAE
S31510044D00810701D50121317101070227002902DA31
S31510044D10317939433171410703D53179042211436D
S31510044D203171400603D530790821084330710F9844
S31510044D3070712098B07121461D9802F0AFF8214683
S31510044D40019800F0B6FA29461D9802F0A7F82946EC
S31510044D50019800F0AEFA1298002841D068461A99C4
S31510044D608181A18BC18107844784012408A8047119
S31510044D7022A80A9008A88473239941730F9938209E
S31510044D80014008A801730721C173002505746846FC
S31510044D90007AC00708D02248694600E02BE0088252
S31510044DA003A924A802F0FAF86846007A8006800F50
S31510044DB007D01B486946401E088203A924A802F09E
S31510044DC0EDF86846007A00060AD5292109026846D4
S31510044DD0018208A84473057303A924A802F0DEF817
S31510044DE0259801881298401C081882B2002002F0F7
S31510044DF065F80020ADE6022213A9C01CFCF790FE4C
S31510044E002846022213A90830FCF78AFE388B401D67
S31510044E1053E70000740400202C0700000328000048
S31510044E2003290000F0B5054600200F46079E059C91
S31510044E30174309D0202905D30127BF03BA4201D845
S31510044E40914201D94220F0BD194621430AD09C4211
S31510044E50F8D309498C4203D00849A41F8C42F1D2D5
S31510044E60062BEFD3002D03D0022D01D0032DE9D14B
S31510044E70032EE7D8F0BD0000FFFF00007B0C0000F6
S31510044E80F0B58DB00C4616A9E0C900210891099118
S31510044E900A910B911599049105A9E0C112A962C949
S31510044EA0009301911346014603960295224601206A
S31510044EB002F024F90DB0F0BD10B51C461346224677
S31510044EC002F0D6F910BD7047FEB5048841880191E9
S31510044ED08688C78800890090204602F0F9F90500F3
S31510044EE066D0E878002863D0A8780007400F01D070
S31510044EF046255EE020222146002000F00FFB040028
S31510044F0048D001992C48891F81424BD8B11F814240
S31510044F1048D80198B04245D8FF20F530874241D28F
S31510044F200099781C7043890088423BD8224900981E
S31510044F30091F0A38884235D8A06812210173A0685F
S31510044F40E9784173A06808218173A0680021C173B0
S31510044F50A068019901740199A068090A4174A068AE
S31510044F60310A8674A068C174A068390A0775A068E6
S31510044F704175A068009981750099A068090AC175E0
S31510044F800C20E0802146052002F0BCF9002803D04D
S31510044F90412508E064250CE0A87806210843A8708A
S31510044FA0002506E042250021204600F0E1FA00E043
S31510044FB042252846FEBD00007A0C000010B51C469A
S31510044FC01346224602F054F910BD704770B50646D2
S31510044FD0462502F0BDF904001CD0208A800519D498
S31510044FE020223146002000F099FA060011D001461D
S31510044FF00025204602F0B8F9A12120698901084349
S3151004500020610548A0610320A073304602F0C2F95E
S3151004501000E06425284670BDB96F051010B50B481D
S31510045020002103687B2000011818027D0820A03394
S315100450301B7B05E0D40700D108465208491CC9B2A7
S315100450408B4201D90828F5D010BD00007404002045
S31510045050F1B5194B7B2118680901024636324118FD
S315100450609646A030027B886C805C0C462034A4469D
S315100450701BE08D6C2C5C009EB04212D06646B67E48
S315100450803607360F86420CD07646367877077F0F6A
S31510045090874201D1360704D501260F7D86403E424C
S315100450A001D1AC5400E0024620461C68A034247B8F
S315100450B08442DED1F8BD000074040020FEB5864695
S315100450C01C4801687B2000010B180020A0310190B8
S315100450D00C7B69460C70996C0A5D8C460521C901D6
S315100450E017E05D6A56009F6AAD5BBE5B019FAD011A
S315100450F0EF1BB60102978F4201D37F1A029787429C
S3151004510000D33846AD196D1801956D462A7065465B
S31510045110AA5C9442E5D1019B7246D21A02928A4243
S3151004512001D2002100E0511A0291814200D30846AF
S31510045130FEBD000074040020C9B202788A4203D06E
S31510045140401C002AF9D100207047704780B500280A
S3151004515001D100BF07A006490B68002B03D02222F9
S315100451600021984701E002F02BF9222002BD00002D
S3151004517058050020636F6E73747261696E742068CB
S31510045180616E646C65723A20626164206D65737336
S3151004519061676500431C0178401C0942FBD1C01AA3
S315100451A070470000C9B2521E05D30378401C8B42C7
S315100451B0F9D1401E7047002070470022030A8B4223
S315100451C00BD203098B4219D243088B422ED2411AB1
S315100451D000D20146524110467047FF2209023FD0C1
S315100451E012068B4205D3121209028B4201D31212F4
S315100451F0090203098B4219D300E0090AC3098B4239
S3151004520001D3CB01C01A524183098B4201D38B01BE
S31510045210C01A524143098B4201D34B01C01A524161
S3151004522003098B4201D30B01C01A5241C3088B42A6
S3151004523001D3CB00C01A524183088B4201D38B0091
S31510045240C01A524143088B4201D34B00C01A524133
S31510045250884200D3401A5241CFD2014610467047B5
S3151004526008B502F0B3F808BD044A092312681B02F4
S31510045270D218D26A40008018417070477404002016
S3151004528070B505460024204601F046FB002801D0DF
S31510045290462404E0012D02D10120FCF7E9F9204649
S315100452A070BD00230360436041720272C37283723D
S315100452B07047086042684A604268116041607047EE
S315100452C004490A683B21490151180A7D02430A75AB
S315100452D07047000074040020F0B5074617480E46C0
S315100452E000683B2149014018007D85B01D461446CF
S315100452F0C00706D003A9384600F0C0F800280AD122
S3151004530002E0472005B0F0BD04AA3046039900F028
S31510045310CDF8002801D06020F4E70499228860882B
S315100453200968002A00D0088C32466E4631C603231B
S3151004533039460020FDF7F0F9E4E700007404002074
S31510045340F0B5454C092526682D027019006E002704
S31510045350416B4248AE368DB0814242D00621684632
S3151004536000F020FF69464879C02108436946487110
S31510045370206806224019006E243002F029F80746E8
S31510045380102105A800F00EFF206810224019006EA7
S3151004539005A9001D02F01CF80743102109A800F006
S315100453A001FF206810224019006E09A9143002F07A
S315100453B00FF80146394313D1206829494019006E64
S315100453C0264F40188008810026480818394604904C
S315100453D002F03AF804980068B84201D1002700E0B8
S315100453E0FB2722685019006EA6322430019006203D
S315100453F001460090002001F005FC002802D1206827
S31510045400A6300190701D009A0199FCF789FB226859
S31510045410102631460020803201F0F4FB002807D014
S31510045420206832464119096E8030091DFCF778FB55
S31510045430226831460020903201F0E4FB002807D0A0
S31510045440206832464119096E90301431FCF768FB16
S3151004545038460DB0F0BD000074040020AAAAAAAA0A
S315100454603400FCEF0000041010B503490622096845
S31510045470B331FCF755FB10BD7404002010B5094A6E
S31510045480094B1268D2189368083206E01C8D8442C0
S3151004549002D100200B6010BD1B689342F6D1412047
S315100454A010BD0000740400202C07000010B50B6A10
S315100454B0203106E09C8B844202D10020136010BD7B
S315100454C01B688B42F6D1412010BDF8B516460D4621
S315100454D00746002401F0D0FF002806D0324629469C
S315100454E0384601F0EFFF044604E0203568790028B9
S315100454F002D00E242046F8BD2879C10701D1012E09
